{
  "_format": "hh-sol-artifact-1",
  "contractName": "WitDNSDomain",
  "sourceName": "contracts/wit.sol",
  "abi": [
    {
      "inputs": [
        {
          "internalType": "address",
          "name": "owner",
          "type": "address"
        },
        {
          "internalType": "uint256",
          "name": "minPrice",
          "type": "uint256"
        }
      ],
      "stateMutability": "nonpayable",
      "type": "constructor"
    },
    {
      "anonymous": false,
      "inputs": [
        {
          "indexed": true,
          "internalType": "bytes32",
          "name": "role",
          "type": "bytes32"
        },
        {
          "indexed": true,
          "internalType": "bytes32",
          "name": "previousAdminRole",
          "type": "bytes32"
        },
        {
          "indexed": true,
          "internalType": "bytes32",
          "name": "newAdminRole",
          "type": "bytes32"
        }
      ],
      "name": "RoleAdminChanged",
      "type": "event"
    },
    {
      "anonymous": false,
      "inputs": [
        {
          "indexed": true,
          "internalType": "bytes32",
          "name": "role",
          "type": "bytes32"
        },
        {
          "indexed": true,
          "internalType": "address",
          "name": "account",
          "type": "address"
        },
        {
          "indexed": true,
          "internalType": "address",
          "name": "sender",
          "type": "address"
        }
      ],
      "name": "RoleGranted",
      "type": "event"
    },
    {
      "anonymous": false,
      "inputs": [
        {
          "indexed": true,
          "internalType": "bytes32",
          "name": "role",
          "type": "bytes32"
        },
        {
          "indexed": true,
          "internalType": "address",
          "name": "account",
          "type": "address"
        },
        {
          "indexed": true,
          "internalType": "address",
          "name": "sender",
          "type": "address"
        }
      ],
      "name": "RoleRevoked",
      "type": "event"
    },
    {
      "inputs": [],
      "name": "DEFAULT_ADMIN_ROLE",
      "outputs": [
        {
          "internalType": "bytes32",
          "name": "",
          "type": "bytes32"
        }
      ],
      "stateMutability": "view",
      "type": "function"
    },
    {
      "inputs": [
        {
          "internalType": "string",
          "name": "domain",
          "type": "string"
        },
        {
          "internalType": "address",
          "name": "owner",
          "type": "address"
        },
        {
          "internalType": "uint256",
          "name": "price",
          "type": "uint256"
        }
      ],
      "name": "buyDomain",
      "outputs": [],
      "stateMutability": "nonpayable",
      "type": "function"
    },
    {
      "inputs": [
        {
          "internalType": "string",
          "name": "domain",
          "type": "string"
        }
      ],
      "name": "getDomainOwner",
      "outputs": [
        {
          "internalType": "address",
          "name": "",
          "type": "address"
        }
      ],
      "stateMutability": "view",
      "type": "function"
    },
    {
      "inputs": [],
      "name": "getERC20ContractAddress",
      "outputs": [
        {
          "internalType": "address",
          "name": "",
          "type": "address"
        }
      ],
      "stateMutability": "view",
      "type": "function"
    },
    {
      "inputs": [],
      "name": "getMinPrice",
      "outputs": [
        {
          "internalType": "uint256",
          "name": "",
          "type": "uint256"
        }
      ],
      "stateMutability": "view",
      "type": "function"
    },
    {
      "inputs": [
        {
          "internalType": "string",
          "name": "domain",
          "type": "string"
        }
      ],
      "name": "getPrice",
      "outputs": [
        {
          "internalType": "uint256",
          "name": "",
          "type": "uint256"
        }
      ],
      "stateMutability": "view",
      "type": "function"
    },
    {
      "inputs": [
        {
          "internalType": "bytes32",
          "name": "role",
          "type": "bytes32"
        }
      ],
      "name": "getRoleAdmin",
      "outputs": [
        {
          "internalType": "bytes32",
          "name": "",
          "type": "bytes32"
        }
      ],
      "stateMutability": "view",
      "type": "function"
    },
    {
      "inputs": [
        {
          "internalType": "bytes32",
          "name": "role",
          "type": "bytes32"
        },
        {
          "internalType": "address",
          "name": "account",
          "type": "address"
        }
      ],
      "name": "grantRole",
      "outputs": [],
      "stateMutability": "nonpayable",
      "type": "function"
    },
    {
      "inputs": [
        {
          "internalType": "bytes32",
          "name": "role",
          "type": "bytes32"
        },
        {
          "internalType": "address",
          "name": "account",
          "type": "address"
        }
      ],
      "name": "hasRole",
      "outputs": [
        {
          "internalType": "bool",
          "name": "",
          "type": "bool"
        }
      ],
      "stateMutability": "view",
      "type": "function"
    },
    {
      "inputs": [
        {
          "internalType": "string",
          "name": "domain",
          "type": "string"
        }
      ],
      "name": "queryDomain",
      "outputs": [
        {
          "internalType": "bool",
          "name": "",
          "type": "bool"
        }
      ],
      "stateMutability": "view",
      "type": "function"
    },
    {
      "inputs": [
        {
          "internalType": "bytes32",
          "name": "role",
          "type": "bytes32"
        },
        {
          "internalType": "address",
          "name": "account",
          "type": "address"
        }
      ],
      "name": "renounceRole",
      "outputs": [],
      "stateMutability": "nonpayable",
      "type": "function"
    },
    {
      "inputs": [
        {
          "internalType": "bytes32",
          "name": "role",
          "type": "bytes32"
        },
        {
          "internalType": "address",
          "name": "account",
          "type": "address"
        }
      ],
      "name": "revokeRole",
      "outputs": [],
      "stateMutability": "nonpayable",
      "type": "function"
    },
    {
      "inputs": [
        {
          "internalType": "string",
          "name": "domain",
          "type": "string"
        },
        {
          "internalType": "string",
          "name": "value",
          "type": "string"
        }
      ],
      "name": "setDomainValue",
      "outputs": [],
      "stateMutability": "nonpayable",
      "type": "function"
    },
    {
      "inputs": [
        {
          "internalType": "address",
          "name": "contractAddress",
          "type": "address"
        }
      ],
      "name": "setERC20ContractAddress",
      "outputs": [],
      "stateMutability": "nonpayable",
      "type": "function"
    },
    {
      "inputs": [
        {
          "internalType": "uint256",
          "name": "minPrice",
          "type": "uint256"
        }
      ],
      "name": "setMinPrice",
      "outputs": [],
      "stateMutability": "nonpayable",
      "type": "function"
    },
    {
      "inputs": [
        {
          "internalType": "bytes4",
          "name": "interfaceId",
          "type": "bytes4"
        }
      ],
      "name": "supportsInterface",
      "outputs": [
        {
          "internalType": "bool",
          "name": "",
          "type": "bool"
        }
      ],
      "stateMutability": "view",
      "type": "function"
    }
  ],
  "bytecode": "0x60806040523480156200001157600080fd5b50604051620021b5380380620021b5833981810160405281019062000037919062000216565b6200004c6000801b836200006560201b60201c565b6200005d816200007b60201b60201c565b5050620002c9565b6200007782826200008560201b60201c565b5050565b8060058190555050565b6200009782826200017660201b60201c565b6200017257600160008084815260200190815260200160002060000160008373ffffffffffffffffffffffffffffffffffffffff1673ffffffffffffffffffffffffffffffffffffffff16815260200190815260200160002060006101000a81548160ff02191690831515021790555062000117620001e060201b60201c565b73ffffffffffffffffffffffffffffffffffffffff168173ffffffffffffffffffffffffffffffffffffffff16837f2f8788117e7eff1d82e926ec794901d17c78024a50270940304540a733656f0d60405160405180910390a45b5050565b600080600084815260200190815260200160002060000160008373ffffffffffffffffffffffffffffffffffffffff1673ffffffffffffffffffffffffffffffffffffffff16815260200190815260200160002060009054906101000a900460ff16905092915050565b600033905090565b600081519050620001f98162000295565b92915050565b6000815190506200021081620002af565b92915050565b600080604083850312156200022a57600080fd5b60006200023a85828601620001e8565b92505060206200024d85828601620001ff565b9150509250929050565b600062000264826200026b565b9050919050565b600073ffffffffffffffffffffffffffffffffffffffff82169050919050565b6000819050919050565b620002a08162000257565b8114620002ac57600080fd5b50565b620002ba816200028b565b8114620002c657600080fd5b50565b611edc80620002d96000396000f3fe608060405234801561001057600080fd5b50600436106101005760003560e01c80635ea8cd1211610097578063ac4a231d11610066578063ac4a231d146102cf578063c124c3da146102eb578063d547741f14610309578063e31a81161461032557610100565b80635ea8cd1214610249578063730dd2401461026557806391d1485414610281578063a217fddf146102b157610100565b806336568abe116100d357806336568abe146101b157806347d9af50146101cd5780634b6f5f05146101fd578063524f38891461021957610100565b806301ffc9a714610105578063248a9ca31461013557806325970115146101655780632f2ff15d14610195575b600080fd5b61011f600480360381019061011a919061136b565b610343565b60405161012c91906117b6565b60405180910390f35b61014f600480360381019061014a9190611306565b6103bd565b60405161015c91906117d1565b60405180910390f35b61017f600480360381019061017a9190611394565b6103dc565b60405161018c9190611772565b60405180910390f35b6101af60048036038101906101aa919061132f565b610424565b005b6101cb60048036038101906101c6919061132f565b61044d565b005b6101e760048036038101906101e29190611394565b6104d0565b6040516101f491906117b6565b60405180910390f35b610217600480360381019061021291906113d5565b610505565b005b610233600480360381019061022e9190611394565b6105a7565b604051610240919061192e565b60405180910390f35b610263600480360381019061025e91906114a8565b6105cf565b005b61027f600480360381019061027a919061143c565b6105f1565b005b61029b6004803603810190610296919061132f565b610675565b6040516102a891906117b6565b60405180910390f35b6102b96106df565b6040516102c691906117d1565b60405180910390f35b6102e960048036038101906102e491906112dd565b6106e6565b005b6102f3610841565b6040516103009190611772565b60405180910390f35b610323600480360381019061031e919061132f565b61086b565b005b61032d610894565b60405161033a919061192e565b60405180910390f35b60007f7965db0b000000000000000000000000000000000000000000000000000000007bffffffffffffffffffffffffffffffffffffffffffffffffffffffff1916827bffffffffffffffffffffffffffffffffffffffffffffffffffffffff191614806103b657506103b58261089e565b5b9050919050565b6000806000838152602001908152602001600020600101549050919050565b60006003826040516103ee9190611721565b908152602001604051809103902060009054906101000a900473ffffffffffffffffffffffffffffffffffffffff169050919050565b61042d826103bd565b61043e81610439610908565b610910565b61044883836109ad565b505050565b610455610908565b73ffffffffffffffffffffffffffffffffffffffff168173ffffffffffffffffffffffffffffffffffffffff16146104c2576040517f08c379a00000000000000000000000000000000000000000000000000000000081526004016104b99061190e565b60405180910390fd5b6104cc8282610a8d565b5050565b60006004826040516104e29190611721565b908152602001604051809103902060009054906101000a900460ff169050919050565b600073ffffffffffffffffffffffffffffffffffffffff16600660009054906101000a900473ffffffffffffffffffffffffffffffffffffffff1673ffffffffffffffffffffffffffffffffffffffff161415610597576040517f08c379a000000000000000000000000000000000000000000000000000000000815260040161058e9061182e565b60405180910390fd5b6105a2838383610b6e565b505050565b60006002826040516105b99190611721565b9081526020016040518091039020549050919050565b6000801b6105e4816105df610908565b610910565b6105ed82610d72565b5050565b3373ffffffffffffffffffffffffffffffffffffffff16610611836103dc565b73ffffffffffffffffffffffffffffffffffffffff1614610667576040517f08c379a000000000000000000000000000000000000000000000000000000000815260040161065e9061184e565b60405180910390fd5b6106718282610d7c565b5050565b600080600084815260200190815260200160002060000160008373ffffffffffffffffffffffffffffffffffffffff1673ffffffffffffffffffffffffffffffffffffffff16815260200190815260200160002060009054906101000a900460ff16905092915050565b6000801b81565b6000801b6106fb816106f6610908565b610910565b600073ffffffffffffffffffffffffffffffffffffffff16600660009054906101000a900473ffffffffffffffffffffffffffffffffffffffff1673ffffffffffffffffffffffffffffffffffffffff161461078c576040517f08c379a00000000000000000000000000000000000000000000000000000000081526004016107839061186e565b60405180910390fd5b600073ffffffffffffffffffffffffffffffffffffffff168273ffffffffffffffffffffffffffffffffffffffff1614156107fc576040517f08c379a00000000000000000000000000000000000000000000000000000000081526004016107f39061188e565b60405180910390fd5b81600660006101000a81548173ffffffffffffffffffffffffffffffffffffffff021916908373ffffffffffffffffffffffffffffffffffffffff1602179055505050565b6000600660009054906101000a900473ffffffffffffffffffffffffffffffffffffffff16905090565b610874826103bd565b61088581610880610908565b610910565b61088f8383610a8d565b505050565b6000600554905090565b60007f01ffc9a7000000000000000000000000000000000000000000000000000000007bffffffffffffffffffffffffffffffffffffffffffffffffffffffff1916827bffffffffffffffffffffffffffffffffffffffffffffffffffffffff1916149050919050565b600033905090565b61091a8282610675565b6109a95761093f8173ffffffffffffffffffffffffffffffffffffffff166014610dea565b61094d8360001c6020610dea565b60405160200161095e929190611738565b6040516020818303038152906040526040517f08c379a00000000000000000000000000000000000000000000000000000000081526004016109a091906117ec565b60405180910390fd5b5050565b6109b78282610675565b610a8957600160008084815260200190815260200160002060000160008373ffffffffffffffffffffffffffffffffffffffff1673ffffffffffffffffffffffffffffffffffffffff16815260200190815260200160002060006101000a81548160ff021916908315150217905550610a2e610908565b73ffffffffffffffffffffffffffffffffffffffff168173ffffffffffffffffffffffffffffffffffffffff16837f2f8788117e7eff1d82e926ec794901d17c78024a50270940304540a733656f0d60405160405180910390a45b5050565b610a978282610675565b15610b6a57600080600084815260200190815260200160002060000160008373ffffffffffffffffffffffffffffffffffffffff1673ffffffffffffffffffffffffffffffffffffffff16815260200190815260200160002060006101000a81548160ff021916908315150217905550610b0f610908565b73ffffffffffffffffffffffffffffffffffffffff168173ffffffffffffffffffffffffffffffffffffffff16837ff6391f5c32d9c69d2a47ea670b442974b53935d1edc7fd64eb21e047a839171b60405160405180910390a45b5050565b610b76610894565b811015610bb8576040517f08c379a0000000000000000000000000000000000000000000000000000000008152600401610baf906118ae565b60405180910390fd5b610bc1836105a7565b8111610c02576040517f08c379a0000000000000000000000000000000000000000000000000000000008152600401610bf9906118ce565b60405180910390fd5b6000600660009054906101000a900473ffffffffffffffffffffffffffffffffffffffff1690508073ffffffffffffffffffffffffffffffffffffffff16639b96eece846040518263ffffffff1660e01b8152600401610c629190611772565b60206040518083038186803b158015610c7a57600080fd5b505afa158015610c8e573d6000803e3d6000fd5b505050506040513d601f19601f82011682018060405250810190610cb291906114d1565b821115610cf4576040517f08c379a0000000000000000000000000000000000000000000000000000000008152600401610ceb906118ee565b60405180910390fd5b8073ffffffffffffffffffffffffffffffffffffffff16639dc29fac84846040518363ffffffff1660e01b8152600401610d2f92919061178d565b600060405180830381600087803b158015610d4957600080fd5b505af1158015610d5d573d6000803e3d6000fd5b50505050610d6c8484846110e4565b50505050565b8060058190555050565b80600183604051610d8d9190611721565b90815260200160405180910390209080519060200190610dae929190611169565b506001600483604051610dc19190611721565b908152602001604051809103902060006101000a81548160ff0219169083151502179055505050565b606060006002836002610dfd9190611a1c565b610e0791906119c6565b67ffffffffffffffff811115610e46577f4e487b7100000000000000000000000000000000000000000000000000000000600052604160045260246000fd5b6040519080825280601f01601f191660200182016040528015610e785781602001600182028036833780820191505090505b5090507f300000000000000000000000000000000000000000000000000000000000000081600081518110610ed6577f4e487b7100000000000000000000000000000000000000000000000000000000600052603260045260246000fd5b60200101907effffffffffffffffffffffffffffffffffffffffffffffffffffffffffffff1916908160001a9053507f780000000000000000000000000000000000000000000000000000000000000081600181518110610f60577f4e487b7100000000000000000000000000000000000000000000000000000000600052603260045260246000fd5b60200101907effffffffffffffffffffffffffffffffffffffffffffffffffffffffffffff1916908160001a90535060006001846002610fa09190611a1c565b610faa91906119c6565b90505b6001811115611096577f3031323334353637383961626364656600000000000000000000000000000000600f861660108110611012577f4e487b7100000000000000000000000000000000000000000000000000000000600052603260045260246000fd5b1a60f81b82828151811061104f577f4e487b7100000000000000000000000000000000000000000000000000000000600052603260045260246000fd5b60200101907effffffffffffffffffffffffffffffffffffffffffffffffffffffffffffff1916908160001a905350600485901c94508061108f90611b36565b9050610fad565b50600084146110da576040517f08c379a00000000000000000000000000000000000000000000000000000000081526004016110d19061180e565b60405180910390fd5b8091505092915050565b806002846040516110f59190611721565b908152602001604051809103902081905550816003846040516111189190611721565b908152602001604051809103902060006101000a81548173ffffffffffffffffffffffffffffffffffffffff021916908373ffffffffffffffffffffffffffffffffffffffff160217905550505050565b82805461117590611b60565b90600052602060002090601f01602090048101928261119757600085556111de565b82601f106111b057805160ff19168380011785556111de565b828001600101855582156111de579182015b828111156111dd5782518255916020019190600101906111c2565b5b5090506111eb91906111ef565b5090565b5b808211156112085760008160009055506001016111f0565b5090565b600061121f61121a8461196e565b611949565b90508281526020810184848401111561123757600080fd5b611242848285611af4565b509392505050565b60008135905061125981611e4a565b92915050565b60008135905061126e81611e61565b92915050565b60008135905061128381611e78565b92915050565b600082601f83011261129a57600080fd5b81356112aa84826020860161120c565b91505092915050565b6000813590506112c281611e8f565b92915050565b6000815190506112d781611e8f565b92915050565b6000602082840312156112ef57600080fd5b60006112fd8482850161124a565b91505092915050565b60006020828403121561131857600080fd5b60006113268482850161125f565b91505092915050565b6000806040838503121561134257600080fd5b60006113508582860161125f565b92505060206113618582860161124a565b9150509250929050565b60006020828403121561137d57600080fd5b600061138b84828501611274565b91505092915050565b6000602082840312156113a657600080fd5b600082013567ffffffffffffffff8111156113c057600080fd5b6113cc84828501611289565b91505092915050565b6000806000606084860312156113ea57600080fd5b600084013567ffffffffffffffff81111561140457600080fd5b61141086828701611289565b93505060206114218682870161124a565b9250506040611432868287016112b3565b9150509250925092565b6000806040838503121561144f57600080fd5b600083013567ffffffffffffffff81111561146957600080fd5b61147585828601611289565b925050602083013567ffffffffffffffff81111561149257600080fd5b61149e85828601611289565b9150509250929050565b6000602082840312156114ba57600080fd5b60006114c8848285016112b3565b91505092915050565b6000602082840312156114e357600080fd5b60006114f1848285016112c8565b91505092915050565b61150381611a76565b82525050565b61151281611a88565b82525050565b61152181611a94565b82525050565b60006115328261199f565b61153c81856119aa565b935061154c818560208601611b03565b61155581611c50565b840191505092915050565b600061156b8261199f565b61157581856119bb565b9350611585818560208601611b03565b80840191505092915050565b600061159e6020836119aa565b91506115a982611c61565b602082019050919050565b60006115c16019836119aa565b91506115cc82611c8a565b602082019050919050565b60006115e4601f836119aa565b91506115ef82611cb3565b602082019050919050565b6000611607601a836119aa565b915061161282611cdc565b602082019050919050565b600061162a6015836119aa565b915061163582611d05565b602082019050919050565b600061164d601b836119aa565b915061165882611d2e565b602082019050919050565b60006116706010836119aa565b915061167b82611d57565b602082019050919050565b60006116936017836119bb565b915061169e82611d80565b601782019050919050565b60006116b66011836119aa565b91506116c182611da9565b602082019050919050565b60006116d96011836119bb565b91506116e482611dd2565b601182019050919050565b60006116fc602f836119aa565b915061170782611dfb565b604082019050919050565b61171b81611aea565b82525050565b600061172d8284611560565b915081905092915050565b600061174382611686565b915061174f8285611560565b915061175a826116cc565b91506117668284611560565b91508190509392505050565b600060208201905061178760008301846114fa565b92915050565b60006040820190506117a260008301856114fa565b6117af6020830184611712565b9392505050565b60006020820190506117cb6000830184611509565b92915050565b60006020820190506117e66000830184611518565b92915050565b600060208201905081810360008301526118068184611527565b905092915050565b6000602082019050818103600083015261182781611591565b9050919050565b60006020820190508181036000830152611847816115b4565b9050919050565b60006020820190508181036000830152611867816115d7565b9050919050565b60006020820190508181036000830152611887816115fa565b9050919050565b600060208201905081810360008301526118a78161161d565b9050919050565b600060208201905081810360008301526118c781611640565b9050919050565b600060208201905081810360008301526118e781611663565b9050919050565b60006020820190508181036000830152611907816116a9565b9050919050565b60006020820190508181036000830152611927816116ef565b9050919050565b60006020820190506119436000830184611712565b92915050565b6000611953611964565b905061195f8282611b92565b919050565b6000604051905090565b600067ffffffffffffffff82111561198957611988611c21565b5b61199282611c50565b9050602081019050919050565b600081519050919050565b600082825260208201905092915050565b600081905092915050565b60006119d182611aea565b91506119dc83611aea565b9250827fffffffffffffffffffffffffffffffffffffffffffffffffffffffffffffffff03821115611a1157611a10611bc3565b5b828201905092915050565b6000611a2782611aea565b9150611a3283611aea565b9250817fffffffffffffffffffffffffffffffffffffffffffffffffffffffffffffffff0483118215151615611a6b57611a6a611bc3565b5b828202905092915050565b6000611a8182611aca565b9050919050565b60008115159050919050565b6000819050919050565b60007fffffffff0000000000000000000000000000000000000000000000000000000082169050919050565b600073ffffffffffffffffffffffffffffffffffffffff82169050919050565b6000819050919050565b82818337600083830152505050565b60005b83811015611b21578082015181840152602081019050611b06565b83811115611b30576000848401525b50505050565b6000611b4182611aea565b91506000821415611b5557611b54611bc3565b5b600182039050919050565b60006002820490506001821680611b7857607f821691505b60208210811415611b8c57611b8b611bf2565b5b50919050565b611b9b82611c50565b810181811067ffffffffffffffff82111715611bba57611bb9611c21565b5b80604052505050565b7f4e487b7100000000000000000000000000000000000000000000000000000000600052601160045260246000fd5b7f4e487b7100000000000000000000000000000000000000000000000000000000600052602260045260246000fd5b7f4e487b7100000000000000000000000000000000000000000000000000000000600052604160045260246000fd5b6000601f19601f8301169050919050565b7f537472696e67733a20686578206c656e67746820696e73756666696369656e74600082015250565b7f455243323020636f6e7472616374206973206e6f742073657400000000000000600082015250565b7f4f6e6c79206f776e65722063616e2073657420646f6d61696e2076616c756500600082015250565b7f455243323020636f6e747261637420616c726561647920736574000000000000600082015250565b7f496e76616c696420455243323020616464726573730000000000000000000000600082015250565b7f5072696365206973206c6f776572207468616e206d696e696d756d0000000000600082015250565b7f507269636520697320746f6f206c6f7700000000000000000000000000000000600082015250565b7f416363657373436f6e74726f6c3a206163636f756e7420000000000000000000600082015250565b7f4e6f7420656e6f75676820746f6b656e73000000000000000000000000000000600082015250565b7f206973206d697373696e6720726f6c6520000000000000000000000000000000600082015250565b7f416363657373436f6e74726f6c3a2063616e206f6e6c792072656e6f756e636560008201527f20726f6c657320666f722073656c660000000000000000000000000000000000602082015250565b611e5381611a76565b8114611e5e57600080fd5b50565b611e6a81611a94565b8114611e7557600080fd5b50565b611e8181611a9e565b8114611e8c57600080fd5b50565b611e9881611aea565b8114611ea357600080fd5b5056fea26469706673582212209cb9913ff7283b01636b6e469e7bdc4a9a1ed40bf3ddba46caa090368db6177564736f6c63430008040033",
  "linkReferences": {},
  "deployedLinkReferences": {}
}