{
  "_format": "hh-sol-artifact-1",
  "contractName": "WitToken",
  "sourceName": "contracts/wit.sol",
  "abi": [
    {
      "inputs": [
        {
          "internalType": "address[]",
          "name": "admins",
          "type": "address[]"
        }
      ],
      "stateMutability": "nonpayable",
      "type": "constructor"
    },
    {
      "anonymous": false,
      "inputs": [
        {
          "indexed": true,
          "internalType": "address",
          "name": "owner",
          "type": "address"
        },
        {
          "indexed": true,
          "internalType": "address",
          "name": "spender",
          "type": "address"
        },
        {
          "indexed": false,
          "internalType": "uint256",
          "name": "value",
          "type": "uint256"
        }
      ],
      "name": "Approval",
      "type": "event"
    },
    {
      "anonymous": false,
      "inputs": [
        {
          "indexed": true,
          "internalType": "bytes32",
          "name": "role",
          "type": "bytes32"
        },
        {
          "indexed": true,
          "internalType": "bytes32",
          "name": "previousAdminRole",
          "type": "bytes32"
        },
        {
          "indexed": true,
          "internalType": "bytes32",
          "name": "newAdminRole",
          "type": "bytes32"
        }
      ],
      "name": "RoleAdminChanged",
      "type": "event"
    },
    {
      "anonymous": false,
      "inputs": [
        {
          "indexed": true,
          "internalType": "bytes32",
          "name": "role",
          "type": "bytes32"
        },
        {
          "indexed": true,
          "internalType": "address",
          "name": "account",
          "type": "address"
        },
        {
          "indexed": true,
          "internalType": "address",
          "name": "sender",
          "type": "address"
        }
      ],
      "name": "RoleGranted",
      "type": "event"
    },
    {
      "anonymous": false,
      "inputs": [
        {
          "indexed": true,
          "internalType": "bytes32",
          "name": "role",
          "type": "bytes32"
        },
        {
          "indexed": true,
          "internalType": "address",
          "name": "account",
          "type": "address"
        },
        {
          "indexed": true,
          "internalType": "address",
          "name": "sender",
          "type": "address"
        }
      ],
      "name": "RoleRevoked",
      "type": "event"
    },
    {
      "anonymous": false,
      "inputs": [
        {
          "indexed": true,
          "internalType": "address",
          "name": "from",
          "type": "address"
        },
        {
          "indexed": true,
          "internalType": "address",
          "name": "to",
          "type": "address"
        },
        {
          "indexed": false,
          "internalType": "uint256",
          "name": "value",
          "type": "uint256"
        }
      ],
      "name": "Transfer",
      "type": "event"
    },
    {
      "inputs": [],
      "name": "DEFAULT_ADMIN_ROLE",
      "outputs": [
        {
          "internalType": "bytes32",
          "name": "",
          "type": "bytes32"
        }
      ],
      "stateMutability": "view",
      "type": "function"
    },
    {
      "inputs": [
        {
          "internalType": "address",
          "name": "owner",
          "type": "address"
        },
        {
          "internalType": "address",
          "name": "spender",
          "type": "address"
        }
      ],
      "name": "allowance",
      "outputs": [
        {
          "internalType": "uint256",
          "name": "",
          "type": "uint256"
        }
      ],
      "stateMutability": "view",
      "type": "function"
    },
    {
      "inputs": [
        {
          "internalType": "address",
          "name": "spender",
          "type": "address"
        },
        {
          "internalType": "uint256",
          "name": "amount",
          "type": "uint256"
        }
      ],
      "name": "approve",
      "outputs": [
        {
          "internalType": "bool",
          "name": "",
          "type": "bool"
        }
      ],
      "stateMutability": "nonpayable",
      "type": "function"
    },
    {
      "inputs": [
        {
          "internalType": "address",
          "name": "account",
          "type": "address"
        }
      ],
      "name": "balanceOf",
      "outputs": [
        {
          "internalType": "uint256",
          "name": "",
          "type": "uint256"
        }
      ],
      "stateMutability": "view",
      "type": "function"
    },
    {
      "inputs": [
        {
          "internalType": "address",
          "name": "account",
          "type": "address"
        },
        {
          "internalType": "uint256",
          "name": "amount",
          "type": "uint256"
        }
      ],
      "name": "burn",
      "outputs": [],
      "stateMutability": "nonpayable",
      "type": "function"
    },
    {
      "inputs": [],
      "name": "decimals",
      "outputs": [
        {
          "internalType": "uint8",
          "name": "",
          "type": "uint8"
        }
      ],
      "stateMutability": "view",
      "type": "function"
    },
    {
      "inputs": [
        {
          "internalType": "address",
          "name": "spender",
          "type": "address"
        },
        {
          "internalType": "uint256",
          "name": "subtractedValue",
          "type": "uint256"
        }
      ],
      "name": "decreaseAllowance",
      "outputs": [
        {
          "internalType": "bool",
          "name": "",
          "type": "bool"
        }
      ],
      "stateMutability": "nonpayable",
      "type": "function"
    },
    {
      "inputs": [
        {
          "internalType": "address",
          "name": "account",
          "type": "address"
        }
      ],
      "name": "getBalanceOf",
      "outputs": [
        {
          "internalType": "uint256",
          "name": "",
          "type": "uint256"
        }
      ],
      "stateMutability": "view",
      "type": "function"
    },
    {
      "inputs": [
        {
          "internalType": "bytes32",
          "name": "role",
          "type": "bytes32"
        }
      ],
      "name": "getRoleAdmin",
      "outputs": [
        {
          "internalType": "bytes32",
          "name": "",
          "type": "bytes32"
        }
      ],
      "stateMutability": "view",
      "type": "function"
    },
    {
      "inputs": [
        {
          "internalType": "bytes32",
          "name": "role",
          "type": "bytes32"
        },
        {
          "internalType": "address",
          "name": "account",
          "type": "address"
        }
      ],
      "name": "grantRole",
      "outputs": [],
      "stateMutability": "nonpayable",
      "type": "function"
    },
    {
      "inputs": [
        {
          "internalType": "bytes32",
          "name": "role",
          "type": "bytes32"
        },
        {
          "internalType": "address",
          "name": "account",
          "type": "address"
        }
      ],
      "name": "hasRole",
      "outputs": [
        {
          "internalType": "bool",
          "name": "",
          "type": "bool"
        }
      ],
      "stateMutability": "view",
      "type": "function"
    },
    {
      "inputs": [
        {
          "internalType": "address",
          "name": "spender",
          "type": "address"
        },
        {
          "internalType": "uint256",
          "name": "addedValue",
          "type": "uint256"
        }
      ],
      "name": "increaseAllowance",
      "outputs": [
        {
          "internalType": "bool",
          "name": "",
          "type": "bool"
        }
      ],
      "stateMutability": "nonpayable",
      "type": "function"
    },
    {
      "inputs": [
        {
          "internalType": "address",
          "name": "account",
          "type": "address"
        },
        {
          "internalType": "uint256",
          "name": "amount",
          "type": "uint256"
        }
      ],
      "name": "mint",
      "outputs": [],
      "stateMutability": "nonpayable",
      "type": "function"
    },
    {
      "inputs": [],
      "name": "name",
      "outputs": [
        {
          "internalType": "string",
          "name": "",
          "type": "string"
        }
      ],
      "stateMutability": "view",
      "type": "function"
    },
    {
      "inputs": [
        {
          "internalType": "bytes32",
          "name": "role",
          "type": "bytes32"
        },
        {
          "internalType": "address",
          "name": "account",
          "type": "address"
        }
      ],
      "name": "renounceRole",
      "outputs": [],
      "stateMutability": "nonpayable",
      "type": "function"
    },
    {
      "inputs": [
        {
          "internalType": "bytes32",
          "name": "role",
          "type": "bytes32"
        },
        {
          "internalType": "address",
          "name": "account",
          "type": "address"
        }
      ],
      "name": "revokeRole",
      "outputs": [],
      "stateMutability": "nonpayable",
      "type": "function"
    },
    {
      "inputs": [
        {
          "internalType": "bytes4",
          "name": "interfaceId",
          "type": "bytes4"
        }
      ],
      "name": "supportsInterface",
      "outputs": [
        {
          "internalType": "bool",
          "name": "",
          "type": "bool"
        }
      ],
      "stateMutability": "view",
      "type": "function"
    },
    {
      "inputs": [],
      "name": "symbol",
      "outputs": [
        {
          "internalType": "string",
          "name": "",
          "type": "string"
        }
      ],
      "stateMutability": "view",
      "type": "function"
    },
    {
      "inputs": [],
      "name": "totalSupply",
      "outputs": [
        {
          "internalType": "uint256",
          "name": "",
          "type": "uint256"
        }
      ],
      "stateMutability": "view",
      "type": "function"
    },
    {
      "inputs": [
        {
          "internalType": "address",
          "name": "to",
          "type": "address"
        },
        {
          "internalType": "uint256",
          "name": "amount",
          "type": "uint256"
        }
      ],
      "name": "transfer",
      "outputs": [
        {
          "internalType": "bool",
          "name": "",
          "type": "bool"
        }
      ],
      "stateMutability": "nonpayable",
      "type": "function"
    },
    {
      "inputs": [
        {
          "internalType": "address",
          "name": "from",
          "type": "address"
        },
        {
          "internalType": "address",
          "name": "to",
          "type": "address"
        },
        {
          "internalType": "uint256",
          "name": "amount",
          "type": "uint256"
        }
      ],
      "name": "transferFrom",
      "outputs": [
        {
          "internalType": "bool",
          "name": "",
          "type": "bool"
        }
      ],
      "stateMutability": "nonpayable",
      "type": "function"
    },
    {
      "inputs": [
        {
          "internalType": "bytes32",
          "name": "role",
          "type": "bytes32"
        },
        {
          "internalType": "address",
          "name": "account",
          "type": "address"
        }
      ],
      "name": "witGrantRole",
      "outputs": [],
      "stateMutability": "nonpayable",
      "type": "function"
    },
    {
      "inputs": [
        {
          "internalType": "address",
          "name": "to",
          "type": "address"
        },
        {
          "internalType": "uint256",
          "name": "amount",
          "type": "uint256"
        }
      ],
      "name": "witTransfer",
      "outputs": [],
      "stateMutability": "nonpayable",
      "type": "function"
    },
    {
      "inputs": [
        {
          "internalType": "address",
          "name": "from",
          "type": "address"
        },
        {
          "internalType": "address",
          "name": "to",
          "type": "address"
        },
        {
          "internalType": "uint256",
          "name": "amount",
          "type": "uint256"
        }
      ],
      "name": "witTransferFrom",
      "outputs": [],
      "stateMutability": "nonpayable",
      "type": "function"
    }
  ],
  "bytecode": "0x60806040523480156200001157600080fd5b5060405162002d7638038062002d76833981810160405281019062000037919062000451565b6040518060400160405280600981526020017f57697420546f6b656e00000000000000000000000000000000000000000000008152506040518060400160405280600381526020017f57495400000000000000000000000000000000000000000000000000000000008152508160039080519060200190620000bb929190620002e8565b508060049080519060200190620000d4929190620002e8565b505050620000ec6000801b336200016d60201b60201c565b60005b815181101562000165576200014f6000801b8383815181106200013b577f4e487b7100000000000000000000000000000000000000000000000000000000600052603260045260246000fd5b60200260200101516200016d60201b60201c565b80806200015c9062000598565b915050620000ef565b50506200069e565b6200017f82826200018360201b60201c565b5050565b6200019582826200027560201b60201c565b620002715760016005600084815260200190815260200160002060000160008373ffffffffffffffffffffffffffffffffffffffff1673ffffffffffffffffffffffffffffffffffffffff16815260200190815260200160002060006101000a81548160ff02191690831515021790555062000216620002e060201b60201c565b73ffffffffffffffffffffffffffffffffffffffff168173ffffffffffffffffffffffffffffffffffffffff16837f2f8788117e7eff1d82e926ec794901d17c78024a50270940304540a733656f0d60405160405180910390a45b5050565b60006005600084815260200190815260200160002060000160008373ffffffffffffffffffffffffffffffffffffffff1673ffffffffffffffffffffffffffffffffffffffff16815260200190815260200160002060009054906101000a900460ff16905092915050565b600033905090565b828054620002f6906200052c565b90600052602060002090601f0160209004810192826200031a576000855562000366565b82601f106200033557805160ff191683800117855562000366565b8280016001018555821562000366579182015b828111156200036557825182559160200191906001019062000348565b5b50905062000375919062000379565b5090565b5b80821115620003945760008160009055506001016200037a565b5090565b6000620003af620003a984620004bf565b62000496565b90508083825260208201905082856020860282011115620003cf57600080fd5b60005b85811015620004035781620003e888826200040d565b845260208401935060208301925050600181019050620003d2565b5050509392505050565b6000815190506200041e8162000684565b92915050565b600082601f8301126200043657600080fd5b81516200044884826020860162000398565b91505092915050565b6000602082840312156200046457600080fd5b600082015167ffffffffffffffff8111156200047f57600080fd5b6200048d8482850162000424565b91505092915050565b6000620004a2620004b5565b9050620004b0828262000562565b919050565b6000604051905090565b600067ffffffffffffffff821115620004dd57620004dc62000644565b5b602082029050602081019050919050565b6000620004fb8262000502565b9050919050565b600073ffffffffffffffffffffffffffffffffffffffff82169050919050565b6000819050919050565b600060028204905060018216806200054557607f821691505b602082108114156200055c576200055b62000615565b5b50919050565b6200056d8262000673565b810181811067ffffffffffffffff821117156200058f576200058e62000644565b5b80604052505050565b6000620005a58262000522565b91507fffffffffffffffffffffffffffffffffffffffffffffffffffffffffffffffff821415620005db57620005da620005e6565b5b600182019050919050565b7f4e487b7100000000000000000000000000000000000000000000000000000000600052601160045260246000fd5b7f4e487b7100000000000000000000000000000000000000000000000000000000600052602260045260246000fd5b7f4e487b7100000000000000000000000000000000000000000000000000000000600052604160045260246000fd5b6000601f19601f8301169050919050565b6200068f81620004ee565b81146200069b57600080fd5b50565b6126c880620006ae6000396000f3fe608060405234801561001057600080fd5b50600436106101585760003560e01c806386521787116100c3578063a457c2d71161007c578063a457c2d7146103ff578063a61f64461461042f578063a9059cbb1461044b578063bad3d25e1461047b578063d547741f14610497578063dd62ed3e146104b357610158565b8063865217871461032b57806391d148541461034757806395d89b41146103775780639b96eece146103955780639dc29fac146103c5578063a217fddf146103e157610158565b80632f2ff15d116101155780632f2ff15d14610259578063313ce5671461027557806336568abe1461029357806339509351146102af57806340c10f19146102df57806370a08231146102fb57610158565b806301ffc9a71461015d57806306fdde031461018d578063095ea7b3146101ab57806318160ddd146101db57806323b872dd146101f9578063248a9ca314610229575b600080fd5b61017760048036038101906101729190611b0d565b6104e3565b6040516101849190611e00565b60405180910390f35b61019561055d565b6040516101a29190611e36565b60405180910390f35b6101c560048036038101906101c09190611a6c565b6105ef565b6040516101d29190611e00565b60405180910390f35b6101e3610612565b6040516101f09190611fd8565b60405180910390f35b610213600480360381019061020e9190611a1d565b61061c565b6040516102209190611e00565b60405180910390f35b610243600480360381019061023e9190611aa8565b61064b565b6040516102509190611e1b565b60405180910390f35b610273600480360381019061026e9190611ad1565b61066b565b005b61027d610694565b60405161028a9190611ff3565b60405180910390f35b6102ad60048036038101906102a89190611ad1565b61069d565b005b6102c960048036038101906102c49190611a6c565b610720565b6040516102d69190611e00565b60405180910390f35b6102f960048036038101906102f49190611a6c565b6107ca565b005b610315600480360381019061031091906119b8565b6107ee565b6040516103229190611fd8565b60405180910390f35b61034560048036038101906103409190611a6c565b610836565b005b610361600480360381019061035c9190611ad1565b610845565b60405161036e9190611e00565b60405180910390f35b61037f6108b0565b60405161038c9190611e36565b60405180910390f35b6103af60048036038101906103aa91906119b8565b610942565b6040516103bc9190611fd8565b60405180910390f35b6103df60048036038101906103da9190611a6c565b610954565b005b6103e9610978565b6040516103f69190611e1b565b60405180910390f35b61041960048036038101906104149190611a6c565b61097f565b6040516104269190611e00565b60405180910390f35b61044960048036038101906104449190611ad1565b610a69565b005b61046560048036038101906104609190611a6c565b610a8d565b6040516104729190611e00565b60405180910390f35b61049560048036038101906104909190611a1d565b610ab0565b005b6104b160048036038101906104ac9190611ad1565b610ac1565b005b6104cd60048036038101906104c891906119e1565b610aea565b6040516104da9190611fd8565b60405180910390f35b60007f7965db0b000000000000000000000000000000000000000000000000000000007bffffffffffffffffffffffffffffffffffffffffffffffffffffffff1916827bffffffffffffffffffffffffffffffffffffffffffffffffffffffff19161480610556575061055582610b71565b5b9050919050565b60606003805461056c90612201565b80601f016020809104026020016040519081016040528092919081815260200182805461059890612201565b80156105e55780601f106105ba576101008083540402835291602001916105e5565b820191906000526020600020905b8154815290600101906020018083116105c857829003601f168201915b5050505050905090565b6000806105fa610bdb565b9050610607818585610be3565b600191505092915050565b6000600254905090565b600080610627610bdb565b9050610634858285610dae565b61063f858585610e3a565b60019150509392505050565b600060056000838152602001908152602001600020600101549050919050565b6106748261064b565b61068581610680610bdb565b6110bb565b61068f8383611158565b505050565b60006012905090565b6106a5610bdb565b73ffffffffffffffffffffffffffffffffffffffff168173ffffffffffffffffffffffffffffffffffffffff1614610712576040517f08c379a000000000000000000000000000000000000000000000000000000000815260040161070990611f98565b60405180910390fd5b61071c8282611239565b5050565b60008061072b610bdb565b90506107bf818585600160008673ffffffffffffffffffffffffffffffffffffffff1673ffffffffffffffffffffffffffffffffffffffff16815260200190815260200160002060008973ffffffffffffffffffffffffffffffffffffffff1673ffffffffffffffffffffffffffffffffffffffff168152602001908152602001600020546107ba9190612035565b610be3565b600191505092915050565b6000801b6107df816107da610bdb565b6110bb565b6107e9838361131b565b505050565b60008060008373ffffffffffffffffffffffffffffffffffffffff1673ffffffffffffffffffffffffffffffffffffffff168152602001908152602001600020549050919050565b6108408282610a8d565b505050565b60006005600084815260200190815260200160002060000160008373ffffffffffffffffffffffffffffffffffffffff1673ffffffffffffffffffffffffffffffffffffffff16815260200190815260200160002060009054906101000a900460ff16905092915050565b6060600480546108bf90612201565b80601f01602080910402602001604051908101604052809291908181526020018280546108eb90612201565b80156109385780601f1061090d57610100808354040283529160200191610938565b820191906000526020600020905b81548152906001019060200180831161091b57829003601f168201915b5050505050905090565b600061094d826107ee565b9050919050565b6000801b61096981610964610bdb565b6110bb565b610973838361147b565b505050565b6000801b81565b60008061098a610bdb565b90506000600160008373ffffffffffffffffffffffffffffffffffffffff1673ffffffffffffffffffffffffffffffffffffffff16815260200190815260200160002060008673ffffffffffffffffffffffffffffffffffffffff1673ffffffffffffffffffffffffffffffffffffffff16815260200190815260200160002054905083811015610a50576040517f08c379a0000000000000000000000000000000000000000000000000000000008152600401610a4790611f78565b60405180910390fd5b610a5d8286868403610be3565b60019250505092915050565b6000801b610a7e81610a79610bdb565b6110bb565b610a888383611652565b505050565b600080610a98610bdb565b9050610aa5818585610e3a565b600191505092915050565b610abb83838361061c565b50505050565b610aca8261064b565b610adb81610ad6610bdb565b6110bb565b610ae58383611239565b505050565b6000600160008473ffffffffffffffffffffffffffffffffffffffff1673ffffffffffffffffffffffffffffffffffffffff16815260200190815260200160002060008373ffffffffffffffffffffffffffffffffffffffff1673ffffffffffffffffffffffffffffffffffffffff16815260200190815260200160002054905092915050565b60007f01ffc9a7000000000000000000000000000000000000000000000000000000007bffffffffffffffffffffffffffffffffffffffffffffffffffffffff1916827bffffffffffffffffffffffffffffffffffffffffffffffffffffffff1916149050919050565b600033905090565b600073ffffffffffffffffffffffffffffffffffffffff168373ffffffffffffffffffffffffffffffffffffffff161415610c53576040517f08c379a0000000000000000000000000000000000000000000000000000000008152600401610c4a90611f58565b60405180910390fd5b600073ffffffffffffffffffffffffffffffffffffffff168273ffffffffffffffffffffffffffffffffffffffff161415610cc3576040517f08c379a0000000000000000000000000000000000000000000000000000000008152600401610cba90611eb8565b60405180910390fd5b80600160008573ffffffffffffffffffffffffffffffffffffffff1673ffffffffffffffffffffffffffffffffffffffff16815260200190815260200160002060008473ffffffffffffffffffffffffffffffffffffffff1673ffffffffffffffffffffffffffffffffffffffff168152602001908152602001600020819055508173ffffffffffffffffffffffffffffffffffffffff168373ffffffffffffffffffffffffffffffffffffffff167f8c5be1e5ebec7d5bd14f71427d1e84f3dd0314c0f7b2291e5b200ac8c7c3b92583604051610da19190611fd8565b60405180910390a3505050565b6000610dba8484610aea565b90507fffffffffffffffffffffffffffffffffffffffffffffffffffffffffffffffff8114610e345781811015610e26576040517f08c379a0000000000000000000000000000000000000000000000000000000008152600401610e1d90611ed8565b60405180910390fd5b610e338484848403610be3565b5b50505050565b600073ffffffffffffffffffffffffffffffffffffffff168373ffffffffffffffffffffffffffffffffffffffff161415610eaa576040517f08c379a0000000000000000000000000000000000000000000000000000000008152600401610ea190611f38565b60405180910390fd5b600073ffffffffffffffffffffffffffffffffffffffff168273ffffffffffffffffffffffffffffffffffffffff161415610f1a576040517f08c379a0000000000000000000000000000000000000000000000000000000008152600401610f1190611e78565b60405180910390fd5b610f25838383611660565b60008060008573ffffffffffffffffffffffffffffffffffffffff1673ffffffffffffffffffffffffffffffffffffffff16815260200190815260200160002054905081811015610fab576040517f08c379a0000000000000000000000000000000000000000000000000000000008152600401610fa290611ef8565b60405180910390fd5b8181036000808673ffffffffffffffffffffffffffffffffffffffff1673ffffffffffffffffffffffffffffffffffffffff16815260200190815260200160002081905550816000808573ffffffffffffffffffffffffffffffffffffffff1673ffffffffffffffffffffffffffffffffffffffff168152602001908152602001600020600082825461103e9190612035565b925050819055508273ffffffffffffffffffffffffffffffffffffffff168473ffffffffffffffffffffffffffffffffffffffff167fddf252ad1be2c89b69c2b068fc378daa952ba7f163c4a11628f55a4df523b3ef846040516110a29190611fd8565b60405180910390a36110b5848484611665565b50505050565b6110c58282610845565b611154576110ea8173ffffffffffffffffffffffffffffffffffffffff16601461166a565b6110f88360001c602061166a565b604051602001611109929190611dc6565b6040516020818303038152906040526040517f08c379a000000000000000000000000000000000000000000000000000000000815260040161114b9190611e36565b60405180910390fd5b5050565b6111628282610845565b6112355760016005600084815260200190815260200160002060000160008373ffffffffffffffffffffffffffffffffffffffff1673ffffffffffffffffffffffffffffffffffffffff16815260200190815260200160002060006101000a81548160ff0219169083151502179055506111da610bdb565b73ffffffffffffffffffffffffffffffffffffffff168173ffffffffffffffffffffffffffffffffffffffff16837f2f8788117e7eff1d82e926ec794901d17c78024a50270940304540a733656f0d60405160405180910390a45b5050565b6112438282610845565b156113175760006005600084815260200190815260200160002060000160008373ffffffffffffffffffffffffffffffffffffffff1673ffffffffffffffffffffffffffffffffffffffff16815260200190815260200160002060006101000a81548160ff0219169083151502179055506112bc610bdb565b73ffffffffffffffffffffffffffffffffffffffff168173ffffffffffffffffffffffffffffffffffffffff16837ff6391f5c32d9c69d2a47ea670b442974b53935d1edc7fd64eb21e047a839171b60405160405180910390a45b5050565b600073ffffffffffffffffffffffffffffffffffffffff168273ffffffffffffffffffffffffffffffffffffffff16141561138b576040517f08c379a000000000000000000000000000000000000000000000000000000000815260040161138290611fb8565b60405180910390fd5b61139760008383611660565b80600260008282546113a99190612035565b92505081905550806000808473ffffffffffffffffffffffffffffffffffffffff1673ffffffffffffffffffffffffffffffffffffffff16815260200190815260200160002060008282546113fe9190612035565b925050819055508173ffffffffffffffffffffffffffffffffffffffff16600073ffffffffffffffffffffffffffffffffffffffff167fddf252ad1be2c89b69c2b068fc378daa952ba7f163c4a11628f55a4df523b3ef836040516114639190611fd8565b60405180910390a361147760008383611665565b5050565b600073ffffffffffffffffffffffffffffffffffffffff168273ffffffffffffffffffffffffffffffffffffffff1614156114eb576040517f08c379a00000000000000000000000000000000000000000000000000000000081526004016114e290611f18565b60405180910390fd5b6114f782600083611660565b60008060008473ffffffffffffffffffffffffffffffffffffffff1673ffffffffffffffffffffffffffffffffffffffff1681526020019081526020016000205490508181101561157d576040517f08c379a000000000000000000000000000000000000000000000000000000000815260040161157490611e98565b60405180910390fd5b8181036000808573ffffffffffffffffffffffffffffffffffffffff1673ffffffffffffffffffffffffffffffffffffffff1681526020019081526020016000208190555081600260008282546115d491906120e5565b92505081905550600073ffffffffffffffffffffffffffffffffffffffff168373ffffffffffffffffffffffffffffffffffffffff167fddf252ad1be2c89b69c2b068fc378daa952ba7f163c4a11628f55a4df523b3ef846040516116399190611fd8565b60405180910390a361164d83600084611665565b505050565b61165c8282611158565b5050565b505050565b505050565b60606000600283600261167d919061208b565b6116879190612035565b67ffffffffffffffff8111156116c6577f4e487b7100000000000000000000000000000000000000000000000000000000600052604160045260246000fd5b6040519080825280601f01601f1916602001820160405280156116f85781602001600182028036833780820191505090505b5090507f300000000000000000000000000000000000000000000000000000000000000081600081518110611756577f4e487b7100000000000000000000000000000000000000000000000000000000600052603260045260246000fd5b60200101907effffffffffffffffffffffffffffffffffffffffffffffffffffffffffffff1916908160001a9053507f7800000000000000000000000000000000000000000000000000000000000000816001815181106117e0577f4e487b7100000000000000000000000000000000000000000000000000000000600052603260045260246000fd5b60200101907effffffffffffffffffffffffffffffffffffffffffffffffffffffffffffff1916908160001a90535060006001846002611820919061208b565b61182a9190612035565b90505b6001811115611916577f3031323334353637383961626364656600000000000000000000000000000000600f861660108110611892577f4e487b7100000000000000000000000000000000000000000000000000000000600052603260045260246000fd5b1a60f81b8282815181106118cf577f4e487b7100000000000000000000000000000000000000000000000000000000600052603260045260246000fd5b60200101907effffffffffffffffffffffffffffffffffffffffffffffffffffffffffffff1916908160001a905350600485901c94508061190f906121d7565b905061182d565b506000841461195a576040517f08c379a000000000000000000000000000000000000000000000000000000000815260040161195190611e58565b60405180910390fd5b8091505092915050565b60008135905061197381612636565b92915050565b6000813590506119888161264d565b92915050565b60008135905061199d81612664565b92915050565b6000813590506119b28161267b565b92915050565b6000602082840312156119ca57600080fd5b60006119d884828501611964565b91505092915050565b600080604083850312156119f457600080fd5b6000611a0285828601611964565b9250506020611a1385828601611964565b9150509250929050565b600080600060608486031215611a3257600080fd5b6000611a4086828701611964565b9350506020611a5186828701611964565b9250506040611a62868287016119a3565b9150509250925092565b60008060408385031215611a7f57600080fd5b6000611a8d85828601611964565b9250506020611a9e858286016119a3565b9150509250929050565b600060208284031215611aba57600080fd5b6000611ac884828501611979565b91505092915050565b60008060408385031215611ae457600080fd5b6000611af285828601611979565b9250506020611b0385828601611964565b9150509250929050565b600060208284031215611b1f57600080fd5b6000611b2d8482850161198e565b91505092915050565b611b3f8161212b565b82525050565b611b4e81612137565b82525050565b6000611b5f8261200e565b611b698185612019565b9350611b798185602086016121a4565b611b8281612291565b840191505092915050565b6000611b988261200e565b611ba2818561202a565b9350611bb28185602086016121a4565b80840191505092915050565b6000611bcb602083612019565b9150611bd6826122a2565b602082019050919050565b6000611bee602383612019565b9150611bf9826122cb565b604082019050919050565b6000611c11602283612019565b9150611c1c8261231a565b604082019050919050565b6000611c34602283612019565b9150611c3f82612369565b604082019050919050565b6000611c57601d83612019565b9150611c62826123b8565b602082019050919050565b6000611c7a602683612019565b9150611c85826123e1565b604082019050919050565b6000611c9d602183612019565b9150611ca882612430565b604082019050919050565b6000611cc0602583612019565b9150611ccb8261247f565b604082019050919050565b6000611ce3602483612019565b9150611cee826124ce565b604082019050919050565b6000611d0660178361202a565b9150611d118261251d565b601782019050919050565b6000611d29602583612019565b9150611d3482612546565b604082019050919050565b6000611d4c60118361202a565b9150611d5782612595565b601182019050919050565b6000611d6f602f83612019565b9150611d7a826125be565b604082019050919050565b6000611d92601f83612019565b9150611d9d8261260d565b602082019050919050565b611db18161218d565b82525050565b611dc081612197565b82525050565b6000611dd182611cf9565b9150611ddd8285611b8d565b9150611de882611d3f565b9150611df48284611b8d565b91508190509392505050565b6000602082019050611e156000830184611b36565b92915050565b6000602082019050611e306000830184611b45565b92915050565b60006020820190508181036000830152611e508184611b54565b905092915050565b60006020820190508181036000830152611e7181611bbe565b9050919050565b60006020820190508181036000830152611e9181611be1565b9050919050565b60006020820190508181036000830152611eb181611c04565b9050919050565b60006020820190508181036000830152611ed181611c27565b9050919050565b60006020820190508181036000830152611ef181611c4a565b9050919050565b60006020820190508181036000830152611f1181611c6d565b9050919050565b60006020820190508181036000830152611f3181611c90565b9050919050565b60006020820190508181036000830152611f5181611cb3565b9050919050565b60006020820190508181036000830152611f7181611cd6565b9050919050565b60006020820190508181036000830152611f9181611d1c565b9050919050565b60006020820190508181036000830152611fb181611d62565b9050919050565b60006020820190508181036000830152611fd181611d85565b9050919050565b6000602082019050611fed6000830184611da8565b92915050565b60006020820190506120086000830184611db7565b92915050565b600081519050919050565b600082825260208201905092915050565b600081905092915050565b60006120408261218d565b915061204b8361218d565b9250827fffffffffffffffffffffffffffffffffffffffffffffffffffffffffffffffff038211156120805761207f612233565b5b828201905092915050565b60006120968261218d565b91506120a18361218d565b9250817fffffffffffffffffffffffffffffffffffffffffffffffffffffffffffffffff04831182151516156120da576120d9612233565b5b828202905092915050565b60006120f08261218d565b91506120fb8361218d565b92508282101561210e5761210d612233565b5b828203905092915050565b60006121248261216d565b9050919050565b60008115159050919050565b6000819050919050565b60007fffffffff0000000000000000000000000000000000000000000000000000000082169050919050565b600073ffffffffffffffffffffffffffffffffffffffff82169050919050565b6000819050919050565b600060ff82169050919050565b60005b838110156121c25780820151818401526020810190506121a7565b838111156121d1576000848401525b50505050565b60006121e28261218d565b915060008214156121f6576121f5612233565b5b600182039050919050565b6000600282049050600182168061221957607f821691505b6020821081141561222d5761222c612262565b5b50919050565b7f4e487b7100000000000000000000000000000000000000000000000000000000600052601160045260246000fd5b7f4e487b7100000000000000000000000000000000000000000000000000000000600052602260045260246000fd5b6000601f19601f8301169050919050565b7f537472696e67733a20686578206c656e67746820696e73756666696369656e74600082015250565b7f45524332303a207472616e7366657220746f20746865207a65726f206164647260008201527f6573730000000000000000000000000000000000000000000000000000000000602082015250565b7f45524332303a206275726e20616d6f756e7420657863656564732062616c616e60008201527f6365000000000000000000000000000000000000000000000000000000000000602082015250565b7f45524332303a20617070726f766520746f20746865207a65726f20616464726560008201527f7373000000000000000000000000000000000000000000000000000000000000602082015250565b7f45524332303a20696e73756666696369656e7420616c6c6f77616e6365000000600082015250565b7f45524332303a207472616e7366657220616d6f756e742065786365656473206260008201527f616c616e63650000000000000000000000000000000000000000000000000000602082015250565b7f45524332303a206275726e2066726f6d20746865207a65726f2061646472657360008201527f7300000000000000000000000000000000000000000000000000000000000000602082015250565b7f45524332303a207472616e736665722066726f6d20746865207a65726f20616460008201527f6472657373000000000000000000000000000000000000000000000000000000602082015250565b7f45524332303a20617070726f76652066726f6d20746865207a65726f2061646460008201527f7265737300000000000000000000000000000000000000000000000000000000602082015250565b7f416363657373436f6e74726f6c3a206163636f756e7420000000000000000000600082015250565b7f45524332303a2064656372656173656420616c6c6f77616e63652062656c6f7760008201527f207a65726f000000000000000000000000000000000000000000000000000000602082015250565b7f206973206d697373696e6720726f6c6520000000000000000000000000000000600082015250565b7f416363657373436f6e74726f6c3a2063616e206f6e6c792072656e6f756e636560008201527f20726f6c657320666f722073656c660000000000000000000000000000000000602082015250565b7f45524332303a206d696e7420746f20746865207a65726f206164647265737300600082015250565b61263f81612119565b811461264a57600080fd5b50565b61265681612137565b811461266157600080fd5b50565b61266d81612141565b811461267857600080fd5b50565b6126848161218d565b811461268f57600080fd5b5056fea26469706673582212202040c23c8ab71a80d06f032ec2863e68d02b9d1a4ab21499b208c198b40aba0c64736f6c63430008040033",
  "linkReferences": {},
  "deployedLinkReferences": {}
}